:020000040800F2
:100000002804002001010008090100080B01000874
:100010000D0100080F010008110100080000000098
:1000200000000000000000000000000013010008B4
:100030001501000800000000170100081901000860
:100040001B0100081B0100081B0100081B01000820
:100050001B0100081B0100081B0100081B01000810
:100060001B0100081B0100081B0100081B01000800
:100070001B0100081B0100081B0100081B010008F0
:100080001B0100081B0100081B0100081B010008E0
:100090001B0100081B0100081B0100081B010008D0
:1000A0001B0100081B0100081B0100081B010008C0
:1000B0001B0100081B0100081B0100081B010008B0
:1000C0001B0100081B0100081B0100081B010008A0
:1000D0001B010008A50400081B0100081B01000803
:1000E0001B0100081B0100081B010008DFF80CD0F1
:1000F00000F018F800480047710A000828040020A2
:100100000648804706480047FEE7FEE7FEE7FEE7B1
:10011000FEE7FEE7FEE7FEE7FEE7FEE74504000830
:10012000ED000008064C074D06E0E06840F00103D2
:1001300094E8070098471034AC42F6D3FFF7DAFF93
:100140009C0A0008BC0A00082DE9F041024600257F
:100150000026002000230024002791F803C00CF0A3
:100160000F0591F803C00CF0100CBCF1000F03D088
:1001700091F802C04CEA050591F800C0BCF1000FEF
:1001800031D0146800202BE04FF0010C0CFA00F382
:10019000B1F800C00CEA03069E4220D183004FF064
:1001A0000F0C0CFA03F7BC4305FA03FC4CEA0404F9
:1001B00091F803C0BCF1280F06D14FF0010C0CFAE6
:1001C00000FCC2F814C00AE091F803C0BCF1480F6B
:1001D00005D14FF0010C0CFA00FCC2F810C0401C15
:1001E0000828D1D31460B1F800C0BCF1FF0F34DD92
:1001F000546800202EE000F1080C4FF0010808FAC6
:100200000CF3B1F800C00CEA03069E4221D1830032
:100210004FF00F0C0CFA03F7BC4305FA03FC4CEA51
:10022000040491F803C0BCF1280F05D100F1080CBB
:1002300008FA0CF8C2F8148091F803C0BCF1480F1A
:1002400007D100F1080C4FF0010808FA0CF8C2F8C9
:100250001080401C0828CED35460BDE8F0810AB15C
:10026000016100E04161704729B1064A9269024389
:10027000044B9A6104E0034A92698243014B9A61FC
:10028000704700000010024030B500210022002419
:1002900000232D4D6D6805F00C0121B1042905D016
:1002A000082923D105E0294D056022E0274D05608E
:1002B0001FE0254D6D6805F47012234D6D6805F43F
:1002C0008034022505EB92421CB9214D554305604F
:1002D0000BE01D4D6D6805F400351DB11C4D5543F7
:1002E000056002E0194D5543056002E0174D0560B9
:1002F00000BF00BF144D6D6805F0F0010909154DF0
:100300006B5C0568DD4045600F4D6D6805F4E0618C
:10031000090A104D6B5C4568DD4085600A4D6D68CB
:1003200005F46051C90A0B4D6B5C4568DD40C56042
:10033000054D6D6805F44041890B074D6B5CC56840
:10034000B5FBF3F5056130BD0010024000127A00E4
:1003500000093D00000000201000002010B500F052
:1003600001F810BD0CB500200190009033480068E2
:1003700040F480303149086000BF3048006800F424
:10038000003000900198401C0190009818B9019825
:10039000B0F5A06FF1D12948006800F4003010B129
:1003A0000120009001E0002000900098012843D136
:1003B0002348006840F010002149086008460068A2
:1003C00020F0030008600846006840F00200086062
:1003D0001A4840681949486008464068486008461D
:1003E000406840F4806048600846406820F47C1013
:1003F00048600846406840F4E810486008460068D5
:1004000040F08070086000BF0C48006800F0007089
:100410000028F9D00948406820F0030007494860E7
:100420000846406840F00200486000BF034840684A
:1004300000F00C000828F9D10CBD000000100240AB
:100440000020024010B51348006840F00100114937
:10045000086008464068104908400E494860084650
:1004600000680E4908400B4908600846006820F4FF
:10047000802008600846406820F4FE0048604FF481
:100480001F008860FFF76AFF4FF0006004490860B2
:1004900010BD0000001002400000FFF8FFFFF6FE54
:1004A00008ED00E010B5002440F22551174800F097
:1004B00062F840B340F22551144800F034F8134874
:1004C00000F014F9C4B21248C07A38B9552C05D0DE
:1004D0000F48002101604160816010BD0C48C07A66
:1004E000042808D1002240F22551084800F06DF898
:1004F0000120074988720648C17AC07A401C044A24
:10050000D0721046445400BFE7E7000000380140B5
:100510001800002001F40072B2F5007F00D100BF86
:10052000CA430280704710B50022002340F66A14C7
:10053000A14200D100BF0A1201249440A3B2DC43BF
:10054000048010BD21B1828942F40052828104E00E
:1005500082894DF6FF731A4082817047024600205F
:10056000B1F5007F00D100BF13880B400BB1012013
:1005700000E00020704770B50246002400230025EB
:10058000002040F66A16B14200D100BFC1F3421507
:1005900001F01F03012606FA03F3012D02D196890B
:1005A000334006E0022D02D1168A334001E0968ADC
:1005B00033400C12012606FA04F41688344013B1B5
:1005C0000CB1012000E0002070BDF0B5034600240E
:1005D00000260025002040F66A17B94200D100BF6E
:1005E0001846C1F3421401F01F06012707FA06F569
:1005F000012C01D10C3004E0022C01D1103000E0BC
:1006000014301AB107682F43076002E00768AF4350
:100610000760F0BD2DE9F04786B005460E46002480
:10062000A24600BFA1460027B08900B100BF2F46F7
:100630002C8A4CF6FF700440F08804432C82AC896D
:100640004EF6F3100440B08831890843718908439D
:100650000443AC81AC8A4FF6FF400440B0890443A8
:10066000AC8201A8FFF710FE1F48874202D1DDF8D7
:1006700010A001E0DDF80CA0A88900F4004040B112
:100680000AEBCA0000EB0A1031684900B0FBF1F830
:1006900007E00AEBCA0000EB0A1031688900B0FBE2
:1006A000F1F86420B8FBF0F004012009642101FB9B
:1006B0001089A88900F4004040B1322000EBC90045
:1006C000B0FBF1F000F00700044308E0322000EB3B
:1006D00009106421B0FBF1F000F00F0004432C81FD
:1006E00006B0BDE8F0870000003801400146888868
:1006F000C0F308007047C1F3080282807047000011
:1007000010B5002400F0F6F8012800D010BD00F06C
:10071000C1F80446032C06D0042C0DD0052C14D0AF
:10072000062C25D11BE0002203211448FFF797FD7A
:1007300013A000F041F81BE0012203210F48FFF74E
:100740008EFD12A000F038F812E000224FF4805124
:100750001148FFF784FD11A000F02EF808E00122F7
:1007600011030D48FFF77BFD0FA000F025F800BF37
:1007700000BF00F07DF800BFC8E70000000801409E
:100780006C6564206F6E0D0A000000006C656420CB
:100790006F66660D0A000000000C014062757A7AEF
:1007A0006572206F6E0D0A0062757A7A6572206F2D
:1007B00066660D0A00000000014A024900F013B805
:1007C000450A00081400002002E008C8121F08C1F2
:1007D000002AFAD170477047002001E001C1121FC2
:1007E000002AFBD170472DE9F04116460F4604461A
:1007F000002503E03946B047641C6D1C20780028B2
:10080000F8D12846BDE8F08108B501210820FFF79E
:100810002BFD4FF48050ADF8000010208DF8030040
:1008200003208DF8020069460448FFF78DFC012281
:1008300011030248FFF713FD08BD0000000C014042
:1008400008B50020009010208DF803004FF6FF70CF
:10085000ADF8000003208DF8020001210420FFF70D
:1008600003FD69460148FFF76FFC08BD0008014021
:1008700010B506480021016041608160012240F20C
:1008800025510348FFF7A1FE10BD0000180000200D
:1008900000380140002116484078012801D001208D
:1008A000704713488078012802D002281AD10CE042
:1008B0000F48C078012801D1032105E00C48C07819
:1008C00008B9042100E002210EE00948C07801289F
:1008D00001D1052105E00648C07808B9062100E0ED
:1008E000022101E0022100BF00BF0846D8E7000056
:1008F000180000200148807A70470000180000208E
:100900002DE9F04186B000200590019002900390FF
:10091000049001218803FFF7A7FC4FF416500190C3
:100920000020ADF810000C20ADF80E000020ADF84E
:100930000C00ADF80A00ADF8080001A93D48FFF72A
:1009400069FE40F225513B48FFF7EDFD012240F2E0
:1009500025513848FFF739FE252000F01F020121FC
:1009600091404209920002F1E022C2F8001100BF5A
:100970000522002425461346C3F1070CBCF1040FE1
:1009800002D94FF0040C01E0C3F1070C674603F1F4
:10099000040CBCF1070F02D24FF0000C01E0A3F1F0
:1009A000030C66464FF0010C0CFA07FCACF1010C8D
:1009B0000CEA040C0CFA06FC4FF0010808FA06F8E1
:1009C000A8F1010808EA05084CEA080100BF002860
:1009D00007DA0A07140E184A00F00F031B1FD4543D
:1009E00003E00A07130E154A135400BF01211148F2
:1009F000FFF7A8FD01210420FFF736FC48208DF801
:100A000017004FF48060ADF8140005A90C48FFF7FB
:100A10009BFB18208DF817004FF40070ADF8140000
:100A200003208DF8160005A90548FFF78DFB06B0D9
:100A3000BDE8F0810038014018ED00E000E400E07E
:100A40000008014070B504460D4640210748FFF7F5
:100A500061FDA1B20548FFF74EFE00BF40210348EB
:100A6000FFF77CFD0028F9D0204670BD003801401A
:100A7000FFF7E6FEFFF744FFFFF7C6FE03A0FFF710
:100A80009BFE00BFFFF73CFEFCE7000068656C6C56
:100A90006F20776F726C640D0A000000BC0A0008BA
:100AA0000000002018000000C8070008D40A000851
:100AB0001800002010040000D80700080000000003
:100AC00001020304010203040607080902040608E0
:040AD0000000000022
:04000005080000ED02
:00000001FF
